{
  "_format": "hh-sol-artifact-1",
  "contractName": "POD",
  "sourceName": "contracts/POD.sol",
  "abi": [
    {
      "inputs": [
        {
          "internalType": "string",
          "name": "name",
          "type": "string"
        },
        {
          "internalType": "string",
          "name": "symbol",
          "type": "string"
        },
        {
          "internalType": "address",
          "name": "podOwner",
          "type": "address"
        },
        {
          "internalType": "uint256",
          "name": "maxSupply",
          "type": "uint256"
        },
        {
          "internalType": "string",
          "name": "baseURI",
          "type": "string"
        },
        {
          "internalType": "uint256",
          "name": "limit",
          "type": "uint256"
        },
        {
          "internalType": "address",
          "name": "_trustedForwarder",
          "type": "address"
        }
      ],
      "stateMutability": "nonpayable",
      "type": "constructor"
    },
    {
      "anonymous": false,
      "inputs": [
        {
          "indexed": true,
          "internalType": "address",
          "name": "owner",
          "type": "address"
        },
        {
          "indexed": true,
          "internalType": "address",
          "name": "approved",
          "type": "address"
        },
        {
          "indexed": true,
          "internalType": "uint256",
          "name": "tokenId",
          "type": "uint256"
        }
      ],
      "name": "Approval",
      "type": "event"
    },
    {
      "anonymous": false,
      "inputs": [
        {
          "indexed": true,
          "internalType": "address",
          "name": "owner",
          "type": "address"
        },
        {
          "indexed": true,
          "internalType": "address",
          "name": "operator",
          "type": "address"
        },
        {
          "indexed": false,
          "internalType": "bool",
          "name": "approved",
          "type": "bool"
        }
      ],
      "name": "ApprovalForAll",
      "type": "event"
    },
    {
      "anonymous": false,
      "inputs": [
        {
          "indexed": true,
          "internalType": "address",
          "name": "previousOwner",
          "type": "address"
        },
        {
          "indexed": true,
          "internalType": "address",
          "name": "newOwner",
          "type": "address"
        }
      ],
      "name": "OwnershipTransferred",
      "type": "event"
    },
    {
      "anonymous": false,
      "inputs": [
        {
          "indexed": true,
          "internalType": "address",
          "name": "from",
          "type": "address"
        },
        {
          "indexed": true,
          "internalType": "address",
          "name": "to",
          "type": "address"
        },
        {
          "indexed": true,
          "internalType": "uint256",
          "name": "tokenId",
          "type": "uint256"
        }
      ],
      "name": "Transfer",
      "type": "event"
    },
    {
      "inputs": [
        {
          "internalType": "address",
          "name": "to",
          "type": "address"
        },
        {
          "internalType": "uint256",
          "name": "tokenId",
          "type": "uint256"
        }
      ],
      "name": "approve",
      "outputs": [],
      "stateMutability": "nonpayable",
      "type": "function"
    },
    {
      "inputs": [],
      "name": "balanceLimit",
      "outputs": [
        {
          "internalType": "uint256",
          "name": "",
          "type": "uint256"
        }
      ],
      "stateMutability": "view",
      "type": "function"
    },
    {
      "inputs": [
        {
          "internalType": "address",
          "name": "owner",
          "type": "address"
        }
      ],
      "name": "balanceOf",
      "outputs": [
        {
          "internalType": "uint256",
          "name": "",
          "type": "uint256"
        }
      ],
      "stateMutability": "view",
      "type": "function"
    },
    {
      "inputs": [
        {
          "internalType": "string",
          "name": "claimCode",
          "type": "string"
        }
      ],
      "name": "claimed",
      "outputs": [
        {
          "internalType": "bool",
          "name": "",
          "type": "bool"
        }
      ],
      "stateMutability": "view",
      "type": "function"
    },
    {
      "inputs": [
        {
          "internalType": "uint256",
          "name": "tokenId",
          "type": "uint256"
        }
      ],
      "name": "getApproved",
      "outputs": [
        {
          "internalType": "address",
          "name": "",
          "type": "address"
        }
      ],
      "stateMutability": "view",
      "type": "function"
    },
    {
      "inputs": [
        {
          "internalType": "address",
          "name": "owner",
          "type": "address"
        },
        {
          "internalType": "address",
          "name": "operator",
          "type": "address"
        }
      ],
      "name": "isApprovedForAll",
      "outputs": [
        {
          "internalType": "bool",
          "name": "",
          "type": "bool"
        }
      ],
      "stateMutability": "view",
      "type": "function"
    },
    {
      "inputs": [
        {
          "internalType": "address",
          "name": "forwarder",
          "type": "address"
        }
      ],
      "name": "isTrustedForwarder",
      "outputs": [
        {
          "internalType": "bool",
          "name": "",
          "type": "bool"
        }
      ],
      "stateMutability": "view",
      "type": "function"
    },
    {
      "inputs": [],
      "name": "maximumSupply",
      "outputs": [
        {
          "internalType": "uint256",
          "name": "",
          "type": "uint256"
        }
      ],
      "stateMutability": "view",
      "type": "function"
    },
    {
      "inputs": [
        {
          "internalType": "address",
          "name": "to",
          "type": "address"
        },
        {
          "internalType": "string",
          "name": "claimCode",
          "type": "string"
        }
      ],
      "name": "mint",
      "outputs": [],
      "stateMutability": "nonpayable",
      "type": "function"
    },
    {
      "inputs": [],
      "name": "name",
      "outputs": [
        {
          "internalType": "string",
          "name": "",
          "type": "string"
        }
      ],
      "stateMutability": "view",
      "type": "function"
    },
    {
      "inputs": [],
      "name": "owner",
      "outputs": [
        {
          "internalType": "address",
          "name": "",
          "type": "address"
        }
      ],
      "stateMutability": "view",
      "type": "function"
    },
    {
      "inputs": [
        {
          "internalType": "uint256",
          "name": "tokenId",
          "type": "uint256"
        }
      ],
      "name": "ownerOf",
      "outputs": [
        {
          "internalType": "address",
          "name": "",
          "type": "address"
        }
      ],
      "stateMutability": "view",
      "type": "function"
    },
    {
      "inputs": [],
      "name": "renounceOwnership",
      "outputs": [],
      "stateMutability": "nonpayable",
      "type": "function"
    },
    {
      "inputs": [
        {
          "internalType": "address",
          "name": "from",
          "type": "address"
        },
        {
          "internalType": "address",
          "name": "to",
          "type": "address"
        },
        {
          "internalType": "uint256",
          "name": "tokenId",
          "type": "uint256"
        }
      ],
      "name": "safeTransferFrom",
      "outputs": [],
      "stateMutability": "nonpayable",
      "type": "function"
    },
    {
      "inputs": [
        {
          "internalType": "address",
          "name": "from",
          "type": "address"
        },
        {
          "internalType": "address",
          "name": "to",
          "type": "address"
        },
        {
          "internalType": "uint256",
          "name": "tokenId",
          "type": "uint256"
        },
        {
          "internalType": "bytes",
          "name": "data",
          "type": "bytes"
        }
      ],
      "name": "safeTransferFrom",
      "outputs": [],
      "stateMutability": "nonpayable",
      "type": "function"
    },
    {
      "inputs": [
        {
          "internalType": "address",
          "name": "operator",
          "type": "address"
        },
        {
          "internalType": "bool",
          "name": "approved",
          "type": "bool"
        }
      ],
      "name": "setApprovalForAll",
      "outputs": [],
      "stateMutability": "nonpayable",
      "type": "function"
    },
    {
      "inputs": [],
      "name": "supply",
      "outputs": [
        {
          "internalType": "uint256",
          "name": "",
          "type": "uint256"
        }
      ],
      "stateMutability": "view",
      "type": "function"
    },
    {
      "inputs": [
        {
          "internalType": "bytes4",
          "name": "interfaceId",
          "type": "bytes4"
        }
      ],
      "name": "supportsInterface",
      "outputs": [
        {
          "internalType": "bool",
          "name": "",
          "type": "bool"
        }
      ],
      "stateMutability": "view",
      "type": "function"
    },
    {
      "inputs": [],
      "name": "symbol",
      "outputs": [
        {
          "internalType": "string",
          "name": "",
          "type": "string"
        }
      ],
      "stateMutability": "view",
      "type": "function"
    },
    {
      "inputs": [
        {
          "internalType": "uint256",
          "name": "tokenId",
          "type": "uint256"
        }
      ],
      "name": "tokenURI",
      "outputs": [
        {
          "internalType": "string",
          "name": "",
          "type": "string"
        }
      ],
      "stateMutability": "view",
      "type": "function"
    },
    {
      "inputs": [
        {
          "internalType": "address",
          "name": "from",
          "type": "address"
        },
        {
          "internalType": "address",
          "name": "to",
          "type": "address"
        },
        {
          "internalType": "uint256",
          "name": "tokenId",
          "type": "uint256"
        }
      ],
      "name": "transferFrom",
      "outputs": [],
      "stateMutability": "nonpayable",
      "type": "function"
    },
    {
      "inputs": [
        {
          "internalType": "address",
          "name": "newOwner",
          "type": "address"
        }
      ],
      "name": "transferOwnership",
      "outputs": [],
      "stateMutability": "nonpayable",
      "type": "function"
    },
    {
      "inputs": [],
      "name": "trustedForwarder",
      "outputs": [
        {
          "internalType": "address",
          "name": "",
          "type": "address"
        }
      ],
      "stateMutability": "view",
      "type": "function"
    },
    {
      "inputs": [],
      "name": "versionRecipient",
      "outputs": [
        {
          "internalType": "string",
          "name": "",
          "type": "string"
        }
      ],
      "stateMutability": "view",
      "type": "function"
    }
  ],
  "bytecode": "0x60806040526040518060400160405280600581526020017f322e322e35000000000000000000000000000000000000000000000000000000815250600d90805190602001906200005192919062000445565b503480156200005f57600080fd5b506040516200376938038062003769833981810160405281019062000085919062000732565b868681600090805190602001906200009f92919062000445565b508060019080519060200190620000b892919062000445565b505050620000db620000cf6200013160201b60201c565b6200014d60201b60201c565b82600a9080519060200190620000f392919062000445565b508360098190555081600b8190555062000113856200021360201b60201c565b6200012481620002aa60201b60201c565b50505050505050620009c2565b600062000148620002ee60201b62000de51760201c565b905090565b6000600660009054906101000a900473ffffffffffffffffffffffffffffffffffffffff16905081600660006101000a81548173ffffffffffffffffffffffffffffffffffffffff021916908373ffffffffffffffffffffffffffffffffffffffff1602179055508173ffffffffffffffffffffffffffffffffffffffff168173ffffffffffffffffffffffffffffffffffffffff167f8be0079c531659141344cd1fd0a4f28419497f9722a3daafe3b4186f6b6457e060405160405180910390a35050565b620002236200033060201b60201c565b600073ffffffffffffffffffffffffffffffffffffffff168173ffffffffffffffffffffffffffffffffffffffff16141562000296576040517f08c379a00000000000000000000000000000000000000000000000000000000081526004016200028d90620008c9565b60405180910390fd5b620002a7816200014d60201b60201c565b50565b80600760006101000a81548173ffffffffffffffffffffffffffffffffffffffff021916908373ffffffffffffffffffffffffffffffffffffffff16021790555050565b600060146000369050101580156200031357506200031233620003c160201b60201c565b5b156200032957601436033560601c90506200032d565b3390505b90565b620003406200013160201b60201c565b73ffffffffffffffffffffffffffffffffffffffff16620003666200041b60201b60201c565b73ffffffffffffffffffffffffffffffffffffffff1614620003bf576040517f08c379a0000000000000000000000000000000000000000000000000000000008152600401620003b6906200093b565b60405180910390fd5b565b6000600760009054906101000a900473ffffffffffffffffffffffffffffffffffffffff1673ffffffffffffffffffffffffffffffffffffffff168273ffffffffffffffffffffffffffffffffffffffff16149050919050565b6000600660009054906101000a900473ffffffffffffffffffffffffffffffffffffffff16905090565b82805462000453906200098c565b90600052602060002090601f016020900481019282620004775760008555620004c3565b82601f106200049257805160ff1916838001178555620004c3565b82800160010185558215620004c3579182015b82811115620004c2578251825591602001919060010190620004a5565b5b509050620004d29190620004d6565b5090565b5b80821115620004f1576000816000905550600101620004d7565b5090565b6000604051905090565b600080fd5b600080fd5b600080fd5b600080fd5b6000601f19601f8301169050919050565b7f4e487b7100000000000000000000000000000000000000000000000000000000600052604160045260246000fd5b6200055e8262000513565b810181811067ffffffffffffffff8211171562000580576200057f62000524565b5b80604052505050565b600062000595620004f5565b9050620005a3828262000553565b919050565b600067ffffffffffffffff821115620005c657620005c562000524565b5b620005d18262000513565b9050602081019050919050565b60005b83811015620005fe578082015181840152602081019050620005e1565b838111156200060e576000848401525b50505050565b60006200062b6200062584620005a8565b62000589565b9050828152602081018484840111156200064a57620006496200050e565b5b62000657848285620005de565b509392505050565b600082601f83011262000677576200067662000509565b5b81516200068984826020860162000614565b91505092915050565b600073ffffffffffffffffffffffffffffffffffffffff82169050919050565b6000620006bf8262000692565b9050919050565b620006d181620006b2565b8114620006dd57600080fd5b50565b600081519050620006f181620006c6565b92915050565b6000819050919050565b6200070c81620006f7565b81146200071857600080fd5b50565b6000815190506200072c8162000701565b92915050565b600080600080600080600060e0888a031215620007545762000753620004ff565b5b600088015167ffffffffffffffff81111562000775576200077462000504565b5b620007838a828b016200065f565b975050602088015167ffffffffffffffff811115620007a757620007a662000504565b5b620007b58a828b016200065f565b9650506040620007c88a828b01620006e0565b9550506060620007db8a828b016200071b565b945050608088015167ffffffffffffffff811115620007ff57620007fe62000504565b5b6200080d8a828b016200065f565b93505060a0620008208a828b016200071b565b92505060c0620008338a828b01620006e0565b91505092959891949750929550565b600082825260208201905092915050565b7f4f776e61626c653a206e6577206f776e657220697320746865207a65726f206160008201527f6464726573730000000000000000000000000000000000000000000000000000602082015250565b6000620008b160268362000842565b9150620008be8262000853565b604082019050919050565b60006020820190508181036000830152620008e481620008a2565b9050919050565b7f4f776e61626c653a2063616c6c6572206973206e6f7420746865206f776e6572600082015250565b60006200092360208362000842565b91506200093082620008eb565b602082019050919050565b60006020820190508181036000830152620009568162000914565b9050919050565b7f4e487b7100000000000000000000000000000000000000000000000000000000600052602260045260246000fd5b60006002820490506001821680620009a557607f821691505b60208210811415620009bc57620009bb6200095d565b5b50919050565b612d9780620009d26000396000f3fe608060405234801561001057600080fd5b50600436106101585760003560e01c8063715018a6116100c3578063b88d4fde1161007c578063b88d4fde146103b7578063b8945670146103d3578063c87b56dd14610403578063d0def52114610433578063e985e9c51461044f578063f2fde38b1461047f57610158565b8063715018a614610319578063762bb282146103235780637da0a877146103415780638da5cb5b1461035f57806395d89b411461037d578063a22cb4651461039b57610158565b806323b872dd1161011557806323b872dd1461023357806342842e0e1461024f578063486ff0cd1461026b578063572b6c05146102895780636352211e146102b957806370a08231146102e957610158565b806301ffc9a71461015d578063047fc9aa1461018d5780630480e58b146101ab57806306fdde03146101c9578063081812fc146101e7578063095ea7b314610217575b600080fd5b61017760048036038101906101729190611c15565b61049b565b6040516101849190611c5d565b60405180910390f35b6101956104ad565b6040516101a29190611c91565b60405180910390f35b6101b36104b7565b6040516101c09190611c91565b60405180910390f35b6101d16104c1565b6040516101de9190611d45565b60405180910390f35b61020160048036038101906101fc9190611d93565b610553565b60405161020e9190611e01565b60405180910390f35b610231600480360381019061022c9190611e48565b610599565b005b61024d60048036038101906102489190611e88565b6106b1565b005b61026960048036038101906102649190611e88565b610711565b005b610273610731565b6040516102809190611d45565b60405180910390f35b6102a3600480360381019061029e9190611edb565b6107bf565b6040516102b09190611c5d565b60405180910390f35b6102d360048036038101906102ce9190611d93565b610819565b6040516102e09190611e01565b60405180910390f35b61030360048036038101906102fe9190611edb565b6108cb565b6040516103109190611c91565b60405180910390f35b610321610983565b005b61032b610997565b6040516103389190611c91565b60405180910390f35b6103496109a9565b6040516103569190611e01565b60405180910390f35b6103676109d3565b6040516103749190611e01565b60405180910390f35b6103856109fd565b6040516103929190611d45565b60405180910390f35b6103b560048036038101906103b09190611f34565b610a8f565b005b6103d160048036038101906103cc91906120a9565b610aa5565b005b6103ed60048036038101906103e891906121cd565b610b07565b6040516103fa9190611c5d565b60405180910390f35b61041d60048036038101906104189190611d93565b610b44565b60405161042a9190611d45565b60405180910390f35b61044d60048036038101906104489190612216565b610b5e565b005b61046960048036038101906104649190612272565b610ccd565b6040516104769190611c5d565b60405180910390f35b61049960048036038101906104949190611edb565b610d61565b005b60006104a682610e1c565b9050919050565b6000600854905090565b6000600954905090565b6060600080546104d0906122e1565b80601f01602080910402602001604051908101604052809291908181526020018280546104fc906122e1565b80156105495780601f1061051e57610100808354040283529160200191610549565b820191906000526020600020905b81548152906001019060200180831161052c57829003601f168201915b5050505050905090565b600061055e82610efe565b6004600083815260200190815260200160002060009054906101000a900473ffffffffffffffffffffffffffffffffffffffff169050919050565b60006105a482610819565b90508073ffffffffffffffffffffffffffffffffffffffff168373ffffffffffffffffffffffffffffffffffffffff161415610615576040517f08c379a000000000000000000000000000000000000000000000000000000000815260040161060c90612385565b60405180910390fd5b8073ffffffffffffffffffffffffffffffffffffffff16610634610f49565b73ffffffffffffffffffffffffffffffffffffffff16148061066357506106628161065d610f49565b610ccd565b5b6106a2576040517f08c379a000000000000000000000000000000000000000000000000000000000815260040161069990612417565b60405180910390fd5b6106ac8383610f58565b505050565b6106c26106bc610f49565b82611011565b610701576040517f08c379a00000000000000000000000000000000000000000000000000000000081526004016106f8906124a9565b60405180910390fd5b61070c8383836110a6565b505050565b61072c83838360405180602001604052806000815250610aa5565b505050565b600d805461073e906122e1565b80601f016020809104026020016040519081016040528092919081815260200182805461076a906122e1565b80156107b75780601f1061078c576101008083540402835291602001916107b7565b820191906000526020600020905b81548152906001019060200180831161079a57829003601f168201915b505050505081565b6000600760009054906101000a900473ffffffffffffffffffffffffffffffffffffffff1673ffffffffffffffffffffffffffffffffffffffff168273ffffffffffffffffffffffffffffffffffffffff16149050919050565b6000806002600084815260200190815260200160002060009054906101000a900473ffffffffffffffffffffffffffffffffffffffff169050600073ffffffffffffffffffffffffffffffffffffffff168173ffffffffffffffffffffffffffffffffffffffff1614156108c2576040517f08c379a00000000000000000000000000000000000000000000000000000000081526004016108b990612515565b60405180910390fd5b80915050919050565b60008073ffffffffffffffffffffffffffffffffffffffff168273ffffffffffffffffffffffffffffffffffffffff16141561093c576040517f08c379a0000000000000000000000000000000000000000000000000000000008152600401610933906125a7565b60405180910390fd5b600360008373ffffffffffffffffffffffffffffffffffffffff1673ffffffffffffffffffffffffffffffffffffffff168152602001908152602001600020549050919050565b61098b61130d565b610995600061138b565b565b60006109a161130d565b600b54905090565b6000600760009054906101000a900473ffffffffffffffffffffffffffffffffffffffff16905090565b6000600660009054906101000a900473ffffffffffffffffffffffffffffffffffffffff16905090565b606060018054610a0c906122e1565b80601f0160208091040260200160405190810160405280929190818152602001828054610a38906122e1565b8015610a855780601f10610a5a57610100808354040283529160200191610a85565b820191906000526020600020905b815481529060010190602001808311610a6857829003601f168201915b5050505050905090565b610aa1610a9a610f49565b8383611451565b5050565b610ab6610ab0610f49565b83611011565b610af5576040517f08c379a0000000000000000000000000000000000000000000000000000000008152600401610aec906124a9565b60405180910390fd5b610b01848484846115be565b50505050565b6000610b1161130d565b600c82604051610b219190612603565b908152602001604051809103902060009054906101000a900460ff169050919050565b6060610b4f82610efe565b610b5761161a565b9050919050565b600c81604051610b6e9190612603565b908152602001604051809103902060009054906101000a900460ff1615610bca576040517f08c379a0000000000000000000000000000000000000000000000000000000008152600401610bc190612666565b60405180910390fd5b60095460085410610c10576040517f08c379a0000000000000000000000000000000000000000000000000000000008152600401610c07906126d2565b60405180910390fd5b600b54610c1c836108cb565b10610c5c576040517f08c379a0000000000000000000000000000000000000000000000000000000008152600401610c5390612764565b60405180910390fd5b60006001600854610c6d91906127b3565b90506001600c83604051610c819190612603565b908152602001604051809103902060006101000a81548160ff02191690831515021790555060086000815480929190610cb990612809565b9190505550610cc883826116ac565b505050565b6000600560008473ffffffffffffffffffffffffffffffffffffffff1673ffffffffffffffffffffffffffffffffffffffff16815260200190815260200160002060008373ffffffffffffffffffffffffffffffffffffffff1673ffffffffffffffffffffffffffffffffffffffff16815260200190815260200160002060009054906101000a900460ff16905092915050565b610d6961130d565b600073ffffffffffffffffffffffffffffffffffffffff168173ffffffffffffffffffffffffffffffffffffffff161415610dd9576040517f08c379a0000000000000000000000000000000000000000000000000000000008152600401610dd0906128c4565b60405180910390fd5b610de28161138b565b50565b60006014600036905010158015610e015750610e00336107bf565b5b15610e1557601436033560601c9050610e19565b3390505b90565b60007f80ac58cd000000000000000000000000000000000000000000000000000000007bffffffffffffffffffffffffffffffffffffffffffffffffffffffff1916827bffffffffffffffffffffffffffffffffffffffffffffffffffffffff19161480610ee757507f5b5e139f000000000000000000000000000000000000000000000000000000007bffffffffffffffffffffffffffffffffffffffffffffffffffffffff1916827bffffffffffffffffffffffffffffffffffffffffffffffffffffffff1916145b80610ef75750610ef6826116ca565b5b9050919050565b610f0781611734565b610f46576040517f08c379a0000000000000000000000000000000000000000000000000000000008152600401610f3d90612515565b60405180910390fd5b50565b6000610f53610de5565b905090565b816004600083815260200190815260200160002060006101000a81548173ffffffffffffffffffffffffffffffffffffffff021916908373ffffffffffffffffffffffffffffffffffffffff160217905550808273ffffffffffffffffffffffffffffffffffffffff16610fcb83610819565b73ffffffffffffffffffffffffffffffffffffffff167f8c5be1e5ebec7d5bd14f71427d1e84f3dd0314c0f7b2291e5b200ac8c7c3b92560405160405180910390a45050565b60008061101d83610819565b90508073ffffffffffffffffffffffffffffffffffffffff168473ffffffffffffffffffffffffffffffffffffffff16148061105f575061105e8185610ccd565b5b8061109d57508373ffffffffffffffffffffffffffffffffffffffff1661108584610553565b73ffffffffffffffffffffffffffffffffffffffff16145b91505092915050565b8273ffffffffffffffffffffffffffffffffffffffff166110c682610819565b73ffffffffffffffffffffffffffffffffffffffff161461111c576040517f08c379a000000000000000000000000000000000000000000000000000000000815260040161111390612956565b60405180910390fd5b600073ffffffffffffffffffffffffffffffffffffffff168273ffffffffffffffffffffffffffffffffffffffff16141561118c576040517f08c379a0000000000000000000000000000000000000000000000000000000008152600401611183906129e8565b60405180910390fd5b6111978383836117a0565b6111a2600082610f58565b6001600360008573ffffffffffffffffffffffffffffffffffffffff1673ffffffffffffffffffffffffffffffffffffffff16815260200190815260200160002060008282546111f29190612a08565b925050819055506001600360008473ffffffffffffffffffffffffffffffffffffffff1673ffffffffffffffffffffffffffffffffffffffff168152602001908152602001600020600082825461124991906127b3565b92505081905550816002600083815260200190815260200160002060006101000a81548173ffffffffffffffffffffffffffffffffffffffff021916908373ffffffffffffffffffffffffffffffffffffffff160217905550808273ffffffffffffffffffffffffffffffffffffffff168473ffffffffffffffffffffffffffffffffffffffff167fddf252ad1be2c89b69c2b068fc378daa952ba7f163c4a11628f55a4df523b3ef60405160405180910390a46113088383836117b0565b505050565b611315610f49565b73ffffffffffffffffffffffffffffffffffffffff166113336109d3565b73ffffffffffffffffffffffffffffffffffffffff1614611389576040517f08c379a000000000000000000000000000000000000000000000000000000000815260040161138090612a88565b60405180910390fd5b565b6000600660009054906101000a900473ffffffffffffffffffffffffffffffffffffffff16905081600660006101000a81548173ffffffffffffffffffffffffffffffffffffffff021916908373ffffffffffffffffffffffffffffffffffffffff1602179055508173ffffffffffffffffffffffffffffffffffffffff168173ffffffffffffffffffffffffffffffffffffffff167f8be0079c531659141344cd1fd0a4f28419497f9722a3daafe3b4186f6b6457e060405160405180910390a35050565b8173ffffffffffffffffffffffffffffffffffffffff168373ffffffffffffffffffffffffffffffffffffffff1614156114c0576040517f08c379a00000000000000000000000000000000000000000000000000000000081526004016114b790612af4565b60405180910390fd5b80600560008573ffffffffffffffffffffffffffffffffffffffff1673ffffffffffffffffffffffffffffffffffffffff16815260200190815260200160002060008473ffffffffffffffffffffffffffffffffffffffff1673ffffffffffffffffffffffffffffffffffffffff16815260200190815260200160002060006101000a81548160ff0219169083151502179055508173ffffffffffffffffffffffffffffffffffffffff168373ffffffffffffffffffffffffffffffffffffffff167f17307eab39ab6107e8899845ad3d59bd9653f200f220920489ca2b5937696c31836040516115b19190611c5d565b60405180910390a3505050565b6115c98484846110a6565b6115d5848484846117b5565b611614576040517f08c379a000000000000000000000000000000000000000000000000000000000815260040161160b90612b86565b60405180910390fd5b50505050565b6060600a8054611629906122e1565b80601f0160208091040260200160405190810160405280929190818152602001828054611655906122e1565b80156116a25780601f10611677576101008083540402835291602001916116a2565b820191906000526020600020905b81548152906001019060200180831161168557829003601f168201915b5050505050905090565b6116c682826040518060200160405280600081525061194c565b5050565b60007f01ffc9a7000000000000000000000000000000000000000000000000000000007bffffffffffffffffffffffffffffffffffffffffffffffffffffffff1916827bffffffffffffffffffffffffffffffffffffffffffffffffffffffff1916149050919050565b60008073ffffffffffffffffffffffffffffffffffffffff166002600084815260200190815260200160002060009054906101000a900473ffffffffffffffffffffffffffffffffffffffff1673ffffffffffffffffffffffffffffffffffffffff1614159050919050565b6117ab8383836119a7565b505050565b505050565b60006117d68473ffffffffffffffffffffffffffffffffffffffff166119ac565b1561193f578373ffffffffffffffffffffffffffffffffffffffff1663150b7a026117ff610f49565b8786866040518563ffffffff1660e01b81526004016118219493929190612bfb565b602060405180830381600087803b15801561183b57600080fd5b505af192505050801561186c57506040513d601f19601f820116820180604052508101906118699190612c5c565b60015b6118ef573d806000811461189c576040519150601f19603f3d011682016040523d82523d6000602084013e6118a1565b606091505b506000815114156118e7576040517f08c379a00000000000000000000000000000000000000000000000000000000081526004016118de90612b86565b60405180910390fd5b805181602001fd5b63150b7a0260e01b7bffffffffffffffffffffffffffffffffffffffffffffffffffffffff1916817bffffffffffffffffffffffffffffffffffffffffffffffffffffffff191614915050611944565b600190505b949350505050565b61195683836119cf565b61196360008484846117b5565b6119a2576040517f08c379a000000000000000000000000000000000000000000000000000000000815260040161199990612b86565b60405180910390fd5b505050565b505050565b6000808273ffffffffffffffffffffffffffffffffffffffff163b119050919050565b600073ffffffffffffffffffffffffffffffffffffffff168273ffffffffffffffffffffffffffffffffffffffff161415611a3f576040517f08c379a0000000000000000000000000000000000000000000000000000000008152600401611a3690612cd5565b60405180910390fd5b611a4881611734565b15611a88576040517f08c379a0000000000000000000000000000000000000000000000000000000008152600401611a7f90612d41565b60405180910390fd5b611a94600083836117a0565b6001600360008473ffffffffffffffffffffffffffffffffffffffff1673ffffffffffffffffffffffffffffffffffffffff1681526020019081526020016000206000828254611ae491906127b3565b92505081905550816002600083815260200190815260200160002060006101000a81548173ffffffffffffffffffffffffffffffffffffffff021916908373ffffffffffffffffffffffffffffffffffffffff160217905550808273ffffffffffffffffffffffffffffffffffffffff16600073ffffffffffffffffffffffffffffffffffffffff167fddf252ad1be2c89b69c2b068fc378daa952ba7f163c4a11628f55a4df523b3ef60405160405180910390a4611ba5600083836117b0565b5050565b6000604051905090565b600080fd5b600080fd5b60007fffffffff0000000000000000000000000000000000000000000000000000000082169050919050565b611bf281611bbd565b8114611bfd57600080fd5b50565b600081359050611c0f81611be9565b92915050565b600060208284031215611c2b57611c2a611bb3565b5b6000611c3984828501611c00565b91505092915050565b60008115159050919050565b611c5781611c42565b82525050565b6000602082019050611c726000830184611c4e565b92915050565b6000819050919050565b611c8b81611c78565b82525050565b6000602082019050611ca66000830184611c82565b92915050565b600081519050919050565b600082825260208201905092915050565b60005b83811015611ce6578082015181840152602081019050611ccb565b83811115611cf5576000848401525b50505050565b6000601f19601f8301169050919050565b6000611d1782611cac565b611d218185611cb7565b9350611d31818560208601611cc8565b611d3a81611cfb565b840191505092915050565b60006020820190508181036000830152611d5f8184611d0c565b905092915050565b611d7081611c78565b8114611d7b57600080fd5b50565b600081359050611d8d81611d67565b92915050565b600060208284031215611da957611da8611bb3565b5b6000611db784828501611d7e565b91505092915050565b600073ffffffffffffffffffffffffffffffffffffffff82169050919050565b6000611deb82611dc0565b9050919050565b611dfb81611de0565b82525050565b6000602082019050611e166000830184611df2565b92915050565b611e2581611de0565b8114611e3057600080fd5b50565b600081359050611e4281611e1c565b92915050565b60008060408385031215611e5f57611e5e611bb3565b5b6000611e6d85828601611e33565b9250506020611e7e85828601611d7e565b9150509250929050565b600080600060608486031215611ea157611ea0611bb3565b5b6000611eaf86828701611e33565b9350506020611ec086828701611e33565b9250506040611ed186828701611d7e565b9150509250925092565b600060208284031215611ef157611ef0611bb3565b5b6000611eff84828501611e33565b91505092915050565b611f1181611c42565b8114611f1c57600080fd5b50565b600081359050611f2e81611f08565b92915050565b60008060408385031215611f4b57611f4a611bb3565b5b6000611f5985828601611e33565b9250506020611f6a85828601611f1f565b9150509250929050565b600080fd5b600080fd5b7f4e487b7100000000000000000000000000000000000000000000000000000000600052604160045260246000fd5b611fb682611cfb565b810181811067ffffffffffffffff82111715611fd557611fd4611f7e565b5b80604052505050565b6000611fe8611ba9565b9050611ff48282611fad565b919050565b600067ffffffffffffffff82111561201457612013611f7e565b5b61201d82611cfb565b9050602081019050919050565b82818337600083830152505050565b600061204c61204784611ff9565b611fde565b90508281526020810184848401111561206857612067611f79565b5b61207384828561202a565b509392505050565b600082601f8301126120905761208f611f74565b5b81356120a0848260208601612039565b91505092915050565b600080600080608085870312156120c3576120c2611bb3565b5b60006120d187828801611e33565b94505060206120e287828801611e33565b93505060406120f387828801611d7e565b925050606085013567ffffffffffffffff81111561211457612113611bb8565b5b6121208782880161207b565b91505092959194509250565b600067ffffffffffffffff82111561214757612146611f7e565b5b61215082611cfb565b9050602081019050919050565b600061217061216b8461212c565b611fde565b90508281526020810184848401111561218c5761218b611f79565b5b61219784828561202a565b509392505050565b600082601f8301126121b4576121b3611f74565b5b81356121c484826020860161215d565b91505092915050565b6000602082840312156121e3576121e2611bb3565b5b600082013567ffffffffffffffff81111561220157612200611bb8565b5b61220d8482850161219f565b91505092915050565b6000806040838503121561222d5761222c611bb3565b5b600061223b85828601611e33565b925050602083013567ffffffffffffffff81111561225c5761225b611bb8565b5b6122688582860161219f565b9150509250929050565b6000806040838503121561228957612288611bb3565b5b600061229785828601611e33565b92505060206122a885828601611e33565b9150509250929050565b7f4e487b7100000000000000000000000000000000000000000000000000000000600052602260045260246000fd5b600060028204905060018216806122f957607f821691505b6020821081141561230d5761230c6122b2565b5b50919050565b7f4552433732313a20617070726f76616c20746f2063757272656e74206f776e6560008201527f7200000000000000000000000000000000000000000000000000000000000000602082015250565b600061236f602183611cb7565b915061237a82612313565b604082019050919050565b6000602082019050818103600083015261239e81612362565b9050919050565b7f4552433732313a20617070726f76652063616c6c6572206973206e6f7420746f60008201527f6b656e206f776e6572206e6f7220617070726f76656420666f7220616c6c0000602082015250565b6000612401603e83611cb7565b915061240c826123a5565b604082019050919050565b60006020820190508181036000830152612430816123f4565b9050919050565b7f4552433732313a2063616c6c6572206973206e6f7420746f6b656e206f776e6560008201527f72206e6f7220617070726f766564000000000000000000000000000000000000602082015250565b6000612493602e83611cb7565b915061249e82612437565b604082019050919050565b600060208201905081810360008301526124c281612486565b9050919050565b7f4552433732313a20696e76616c696420746f6b656e2049440000000000000000600082015250565b60006124ff601883611cb7565b915061250a826124c9565b602082019050919050565b6000602082019050818103600083015261252e816124f2565b9050919050565b7f4552433732313a2061646472657373207a65726f206973206e6f74206120766160008201527f6c6964206f776e65720000000000000000000000000000000000000000000000602082015250565b6000612591602983611cb7565b915061259c82612535565b604082019050919050565b600060208201905081810360008301526125c081612584565b9050919050565b600081905092915050565b60006125dd82611cac565b6125e781856125c7565b93506125f7818560208601611cc8565b80840191505092915050565b600061260f82846125d2565b915081905092915050565b7f504f443a20636f646520686173206265656e20636c61696d6564000000000000600082015250565b6000612650601a83611cb7565b915061265b8261261a565b602082019050919050565b6000602082019050818103600083015261267f81612643565b9050919050565b7f504f443a206d617820737570706c7920686173206265656e2072656163686564600082015250565b60006126bc602083611cb7565b91506126c782612686565b602082019050919050565b600060208201905081810360008301526126eb816126af565b9050919050565b7f504f443a20726563697069656e742062616c616e63652067726561746572207460008201527f68616e206c696d69740000000000000000000000000000000000000000000000602082015250565b600061274e602983611cb7565b9150612759826126f2565b604082019050919050565b6000602082019050818103600083015261277d81612741565b9050919050565b7f4e487b7100000000000000000000000000000000000000000000000000000000600052601160045260246000fd5b60006127be82611c78565b91506127c983611c78565b9250827fffffffffffffffffffffffffffffffffffffffffffffffffffffffffffffffff038211156127fe576127fd612784565b5b828201905092915050565b600061281482611c78565b91507fffffffffffffffffffffffffffffffffffffffffffffffffffffffffffffffff82141561284757612846612784565b5b600182019050919050565b7f4f776e61626c653a206e6577206f776e657220697320746865207a65726f206160008201527f6464726573730000000000000000000000000000000000000000000000000000602082015250565b60006128ae602683611cb7565b91506128b982612852565b604082019050919050565b600060208201905081810360008301526128dd816128a1565b9050919050565b7f4552433732313a207472616e736665722066726f6d20696e636f72726563742060008201527f6f776e6572000000000000000000000000000000000000000000000000000000602082015250565b6000612940602583611cb7565b915061294b826128e4565b604082019050919050565b6000602082019050818103600083015261296f81612933565b9050919050565b7f4552433732313a207472616e7366657220746f20746865207a65726f2061646460008201527f7265737300000000000000000000000000000000000000000000000000000000602082015250565b60006129d2602483611cb7565b91506129dd82612976565b604082019050919050565b60006020820190508181036000830152612a01816129c5565b9050919050565b6000612a1382611c78565b9150612a1e83611c78565b925082821015612a3157612a30612784565b5b828203905092915050565b7f4f776e61626c653a2063616c6c6572206973206e6f7420746865206f776e6572600082015250565b6000612a72602083611cb7565b9150612a7d82612a3c565b602082019050919050565b60006020820190508181036000830152612aa181612a65565b9050919050565b7f4552433732313a20617070726f766520746f2063616c6c657200000000000000600082015250565b6000612ade601983611cb7565b9150612ae982612aa8565b602082019050919050565b60006020820190508181036000830152612b0d81612ad1565b9050919050565b7f4552433732313a207472616e7366657220746f206e6f6e20455243373231526560008201527f63656976657220696d706c656d656e7465720000000000000000000000000000602082015250565b6000612b70603283611cb7565b9150612b7b82612b14565b604082019050919050565b60006020820190508181036000830152612b9f81612b63565b9050919050565b600081519050919050565b600082825260208201905092915050565b6000612bcd82612ba6565b612bd78185612bb1565b9350612be7818560208601611cc8565b612bf081611cfb565b840191505092915050565b6000608082019050612c106000830187611df2565b612c1d6020830186611df2565b612c2a6040830185611c82565b8181036060830152612c3c8184612bc2565b905095945050505050565b600081519050612c5681611be9565b92915050565b600060208284031215612c7257612c71611bb3565b5b6000612c8084828501612c47565b91505092915050565b7f4552433732313a206d696e7420746f20746865207a65726f2061646472657373600082015250565b6000612cbf602083611cb7565b9150612cca82612c89565b602082019050919050565b60006020820190508181036000830152612cee81612cb2565b9050919050565b7f4552433732313a20746f6b656e20616c7265616479206d696e74656400000000600082015250565b6000612d2b601c83611cb7565b9150612d3682612cf5565b602082019050919050565b60006020820190508181036000830152612d5a81612d1e565b905091905056fea2646970667358221220f381d470f249703a62f999262e87b04ad53799165c99b8bceb7007e7176f480964736f6c63430008090033",
  "linkReferences": {},
  "deployedLinkReferences": {}
}